{
  "contractName": "LandNFT",
  "abi": [
    {
      "inputs": [],
      "stateMutability": "nonpayable",
      "type": "constructor"
    },
    {
      "anonymous": false,
      "inputs": [
        {
          "indexed": true,
          "internalType": "address",
          "name": "owner",
          "type": "address"
        },
        {
          "indexed": true,
          "internalType": "address",
          "name": "approved",
          "type": "address"
        },
        {
          "indexed": true,
          "internalType": "uint256",
          "name": "tokenId",
          "type": "uint256"
        }
      ],
      "name": "Approval",
      "type": "event"
    },
    {
      "anonymous": false,
      "inputs": [
        {
          "indexed": true,
          "internalType": "address",
          "name": "owner",
          "type": "address"
        },
        {
          "indexed": true,
          "internalType": "address",
          "name": "operator",
          "type": "address"
        },
        {
          "indexed": false,
          "internalType": "bool",
          "name": "approved",
          "type": "bool"
        }
      ],
      "name": "ApprovalForAll",
      "type": "event"
    },
    {
      "anonymous": false,
      "inputs": [
        {
          "indexed": true,
          "internalType": "address",
          "name": "previousOwner",
          "type": "address"
        },
        {
          "indexed": true,
          "internalType": "address",
          "name": "newOwner",
          "type": "address"
        }
      ],
      "name": "OwnershipTransferred",
      "type": "event"
    },
    {
      "anonymous": false,
      "inputs": [
        {
          "indexed": true,
          "internalType": "address",
          "name": "from",
          "type": "address"
        },
        {
          "indexed": true,
          "internalType": "address",
          "name": "to",
          "type": "address"
        },
        {
          "indexed": true,
          "internalType": "uint256",
          "name": "tokenId",
          "type": "uint256"
        }
      ],
      "name": "Transfer",
      "type": "event"
    },
    {
      "inputs": [
        {
          "internalType": "address",
          "name": "to",
          "type": "address"
        },
        {
          "internalType": "uint256",
          "name": "tokenId",
          "type": "uint256"
        }
      ],
      "name": "approve",
      "outputs": [],
      "stateMutability": "nonpayable",
      "type": "function"
    },
    {
      "inputs": [
        {
          "internalType": "address",
          "name": "owner",
          "type": "address"
        }
      ],
      "name": "balanceOf",
      "outputs": [
        {
          "internalType": "uint256",
          "name": "",
          "type": "uint256"
        }
      ],
      "stateMutability": "view",
      "type": "function",
      "constant": true
    },
    {
      "inputs": [
        {
          "internalType": "uint256",
          "name": "tokenId",
          "type": "uint256"
        }
      ],
      "name": "getApproved",
      "outputs": [
        {
          "internalType": "address",
          "name": "",
          "type": "address"
        }
      ],
      "stateMutability": "view",
      "type": "function",
      "constant": true
    },
    {
      "inputs": [
        {
          "internalType": "address",
          "name": "owner",
          "type": "address"
        },
        {
          "internalType": "address",
          "name": "operator",
          "type": "address"
        }
      ],
      "name": "isApprovedForAll",
      "outputs": [
        {
          "internalType": "bool",
          "name": "",
          "type": "bool"
        }
      ],
      "stateMutability": "view",
      "type": "function",
      "constant": true
    },
    {
      "inputs": [],
      "name": "name",
      "outputs": [
        {
          "internalType": "string",
          "name": "",
          "type": "string"
        }
      ],
      "stateMutability": "view",
      "type": "function",
      "constant": true
    },
    {
      "inputs": [],
      "name": "owner",
      "outputs": [
        {
          "internalType": "address",
          "name": "",
          "type": "address"
        }
      ],
      "stateMutability": "view",
      "type": "function",
      "constant": true
    },
    {
      "inputs": [
        {
          "internalType": "uint256",
          "name": "tokenId",
          "type": "uint256"
        }
      ],
      "name": "ownerOf",
      "outputs": [
        {
          "internalType": "address",
          "name": "",
          "type": "address"
        }
      ],
      "stateMutability": "view",
      "type": "function",
      "constant": true
    },
    {
      "inputs": [],
      "name": "renounceOwnership",
      "outputs": [],
      "stateMutability": "nonpayable",
      "type": "function"
    },
    {
      "inputs": [
        {
          "internalType": "address",
          "name": "from",
          "type": "address"
        },
        {
          "internalType": "address",
          "name": "to",
          "type": "address"
        },
        {
          "internalType": "uint256",
          "name": "tokenId",
          "type": "uint256"
        }
      ],
      "name": "safeTransferFrom",
      "outputs": [],
      "stateMutability": "nonpayable",
      "type": "function"
    },
    {
      "inputs": [
        {
          "internalType": "address",
          "name": "from",
          "type": "address"
        },
        {
          "internalType": "address",
          "name": "to",
          "type": "address"
        },
        {
          "internalType": "uint256",
          "name": "tokenId",
          "type": "uint256"
        },
        {
          "internalType": "bytes",
          "name": "data",
          "type": "bytes"
        }
      ],
      "name": "safeTransferFrom",
      "outputs": [],
      "stateMutability": "nonpayable",
      "type": "function"
    },
    {
      "inputs": [
        {
          "internalType": "address",
          "name": "operator",
          "type": "address"
        },
        {
          "internalType": "bool",
          "name": "approved",
          "type": "bool"
        }
      ],
      "name": "setApprovalForAll",
      "outputs": [],
      "stateMutability": "nonpayable",
      "type": "function"
    },
    {
      "inputs": [
        {
          "internalType": "bytes4",
          "name": "interfaceId",
          "type": "bytes4"
        }
      ],
      "name": "supportsInterface",
      "outputs": [
        {
          "internalType": "bool",
          "name": "",
          "type": "bool"
        }
      ],
      "stateMutability": "view",
      "type": "function",
      "constant": true
    },
    {
      "inputs": [],
      "name": "symbol",
      "outputs": [
        {
          "internalType": "string",
          "name": "",
          "type": "string"
        }
      ],
      "stateMutability": "view",
      "type": "function",
      "constant": true
    },
    {
      "inputs": [
        {
          "internalType": "uint256",
          "name": "tokenId",
          "type": "uint256"
        }
      ],
      "name": "tokenURI",
      "outputs": [
        {
          "internalType": "string",
          "name": "",
          "type": "string"
        }
      ],
      "stateMutability": "view",
      "type": "function",
      "constant": true
    },
    {
      "inputs": [
        {
          "internalType": "address",
          "name": "from",
          "type": "address"
        },
        {
          "internalType": "address",
          "name": "to",
          "type": "address"
        },
        {
          "internalType": "uint256",
          "name": "tokenId",
          "type": "uint256"
        }
      ],
      "name": "transferFrom",
      "outputs": [],
      "stateMutability": "nonpayable",
      "type": "function"
    },
    {
      "inputs": [
        {
          "internalType": "address",
          "name": "newOwner",
          "type": "address"
        }
      ],
      "name": "transferOwnership",
      "outputs": [],
      "stateMutability": "nonpayable",
      "type": "function"
    },
    {
      "inputs": [
        {
          "internalType": "address",
          "name": "",
          "type": "address"
        }
      ],
      "name": "wills",
      "outputs": [
        {
          "internalType": "string",
          "name": "text",
          "type": "string"
        },
        {
          "internalType": "uint256",
          "name": "propertyID",
          "type": "uint256"
        }
      ],
      "stateMutability": "view",
      "type": "function",
      "constant": true
    },
    {
      "inputs": [
        {
          "internalType": "address",
          "name": "recipient",
          "type": "address"
        },
        {
          "internalType": "string",
          "name": "tokenURI",
          "type": "string"
        }
      ],
      "name": "mintNFT",
      "outputs": [
        {
          "internalType": "uint256",
          "name": "",
          "type": "uint256"
        }
      ],
      "stateMutability": "nonpayable",
      "type": "function"
    },
    {
      "inputs": [
        {
          "internalType": "address",
          "name": "from",
          "type": "address"
        },
        {
          "internalType": "address",
          "name": "to",
          "type": "address"
        },
        {
          "internalType": "uint256",
          "name": "tokenId",
          "type": "uint256"
        }
      ],
      "name": "transferNFT",
      "outputs": [],
      "stateMutability": "nonpayable",
      "type": "function"
    },
    {
      "inputs": [
        {
          "internalType": "uint256",
          "name": "tokenId",
          "type": "uint256"
        },
        {
          "internalType": "address",
          "name": "recepient",
          "type": "address"
        },
        {
          "internalType": "string",
          "name": "tokenURI",
          "type": "string"
        }
      ],
      "name": "updateNFT",
      "outputs": [],
      "stateMutability": "nonpayable",
      "type": "function"
    },
    {
      "inputs": [
        {
          "internalType": "address",
          "name": "creater",
          "type": "address"
        },
        {
          "internalType": "uint256",
          "name": "id",
          "type": "uint256"
        },
        {
          "internalType": "string",
          "name": "text",
          "type": "string"
        }
      ],
      "name": "createWill",
      "outputs": [],
      "stateMutability": "nonpayable",
      "type": "function"
    },
    {
      "inputs": [
        {
          "internalType": "address",
          "name": "creater",
          "type": "address"
        }
      ],
      "name": "viewWill",
      "outputs": [
        {
          "internalType": "uint256",
          "name": "",
          "type": "uint256"
        },
        {
          "internalType": "string",
          "name": "",
          "type": "string"
        }
      ],
      "stateMutability": "view",
      "type": "function",
      "constant": true
    }
  ],
  "bytecode": "0x60806040523480156200001157600080fd5b506040518060400160405280600a81526020017f4c616e64204465656473000000000000000000000000000000000000000000008152506040518060400160405280600481526020017f4c44484700000000000000000000000000000000000000000000000000000000815250816000908051906020019062000096929190620001b8565b508060019080519060200190620000af929190620001b8565b505050620000e4620000cf620000ea640100000000026401000000009004565b620000f2640100000000026401000000009004565b620002cc565b600033905090565b6000600760009054906101000a900473ffffffffffffffffffffffffffffffffffffffff16905081600760006101000a81548173ffffffffffffffffffffffffffffffffffffffff021916908373ffffffffffffffffffffffffffffffffffffffff1602179055508173ffffffffffffffffffffffffffffffffffffffff168173ffffffffffffffffffffffffffffffffffffffff167f8be0079c531659141344cd1fd0a4f28419497f9722a3daafe3b4186f6b6457e060405160405180910390a35050565b828054620001c69062000297565b90600052602060002090601f016020900481019282620001ea576000855562000236565b82601f106200020557805160ff191683800117855562000236565b8280016001018555821562000236579182015b828111156200023557825182559160200191906001019062000218565b5b50905062000245919062000249565b5090565b5b80821115620002645760008160009055506001016200024a565b5090565b7f4e487b7100000000000000000000000000000000000000000000000000000000600052602260045260246000fd5b60006002820490506001821680620002b057607f821691505b602082108103620002c657620002c562000268565b5b50919050565b6134be80620002dc6000396000f3fe608060405234801561001057600080fd5b506004361061015f576000357c010000000000000000000000000000000000000000000000000000000090048063715018a6116100d5578063b88d4fde11610099578063b88d4fde1461037d578063c360d57d14610399578063c87b56dd146103ca578063e985e9c5146103fa578063eacabe141461042a578063f2fde38b1461045a5761015f565b8063715018a6146102ea5780638da5cb5b146102f457806395d89b4114610312578063a22cb46514610330578063a4cb92fa1461034c5761015f565b806323b872dd1161012757806323b872dd1461021a5780632bdf0a311461023657806342842e0e146102525780636352211e1461026e57806369e9cae11461029e57806370a08231146102ba5761015f565b806301ffc9a71461016457806306fdde0314610194578063081812fc146101b257806308eb7c9c146101e2578063095ea7b3146101fe575b600080fd5b61017e6004803603810190610179919061232d565b610476565b60405161018b9190612375565b60405180910390f35b61019c610558565b6040516101a99190612429565b60405180910390f35b6101cc60048036038101906101c79190612481565b6105ea565b6040516101d991906124ef565b60405180910390f35b6101fc60048036038101906101f7919061266b565b610630565b005b610218600480360381019061021391906126da565b6106d3565b005b610234600480360381019061022f919061271a565b6107ea565b005b610250600480360381019061024b919061276d565b61084a565b005b61026c6004803603810190610267919061271a565b61086c565b005b61028860048036038101906102839190612481565b61088c565b60405161029591906124ef565b60405180910390f35b6102b860048036038101906102b3919061271a565b610912565b005b6102d460048036038101906102cf91906127dc565b610922565b6040516102e19190612818565b60405180910390f35b6102f26109d9565b005b6102fc6109ed565b60405161030991906124ef565b60405180910390f35b61031a610a17565b6040516103279190612429565b60405180910390f35b61034a6004803603810190610345919061285f565b610aa9565b005b610366600480360381019061036191906127dc565b610abf565b60405161037492919061289f565b60405180910390f35b61039760048036038101906103929190612970565b610b6b565b005b6103b360048036038101906103ae91906127dc565b610bcd565b6040516103c19291906129f3565b60405180910390f35b6103e460048036038101906103df9190612481565b610ceb565b6040516103f19190612429565b60405180910390f35b610414600480360381019061040f9190612a23565b610dfd565b6040516104219190612375565b60405180910390f35b610444600480360381019061043f9190612a63565b610e91565b6040516104519190612818565b60405180910390f35b610474600480360381019061046f91906127dc565b610ec9565b005b60007f80ac58cd000000000000000000000000000000000000000000000000000000007bffffffffffffffffffffffffffffffffffffffffffffffffffffffff1916827bffffffffffffffffffffffffffffffffffffffffffffffffffffffff1916148061054157507f5b5e139f000000000000000000000000000000000000000000000000000000007bffffffffffffffffffffffffffffffffffffffffffffffffffffffff1916827bffffffffffffffffffffffffffffffffffffffffffffffffffffffff1916145b80610551575061055082610f4c565b5b9050919050565b60606000805461056790612aee565b80601f016020809104026020016040519081016040528092919081815260200182805461059390612aee565b80156105e05780601f106105b5576101008083540402835291602001916105e0565b820191906000526020600020905b8154815290600101906020018083116105c357829003601f168201915b5050505050905090565b60006105f582610fb6565b6004600083815260200190815260200160002060009054906101000a900473ffffffffffffffffffffffffffffffffffffffff169050919050565b81600960008573ffffffffffffffffffffffffffffffffffffffff1673ffffffffffffffffffffffffffffffffffffffff1681526020019081526020016000206001018190555080600960008573ffffffffffffffffffffffffffffffffffffffff1673ffffffffffffffffffffffffffffffffffffffff16815260200190815260200160002060000190805190602001906106cd9291906121de565b50505050565b60006106de8261088c565b90508073ffffffffffffffffffffffffffffffffffffffff168373ffffffffffffffffffffffffffffffffffffffff160361074e576040517f08c379a000000000000000000000000000000000000000000000000000000000815260040161074590612b91565b60405180910390fd5b8073ffffffffffffffffffffffffffffffffffffffff1661076d611001565b73ffffffffffffffffffffffffffffffffffffffff16148061079c575061079b81610796611001565b610dfd565b5b6107db576040517f08c379a00000000000000000000000000000000000000000000000000000000081526004016107d290612c23565b60405180910390fd5b6107e58383611009565b505050565b6107fb6107f5611001565b826110c2565b61083a576040517f08c379a000000000000000000000000000000000000000000000000000000000815260040161083190612cb5565b60405180910390fd5b610845838383611157565b505050565b61085383611450565b61085d82846114a3565b61086783826116c0565b505050565b61088783838360405180602001604052806000815250610b6b565b505050565b60008061089883611734565b9050600073ffffffffffffffffffffffffffffffffffffffff168173ffffffffffffffffffffffffffffffffffffffff1603610909576040517f08c379a000000000000000000000000000000000000000000000000000000000815260040161090090612d21565b60405180910390fd5b80915050919050565b61091d838383611157565b505050565b60008073ffffffffffffffffffffffffffffffffffffffff168273ffffffffffffffffffffffffffffffffffffffff1603610992576040517f08c379a000000000000000000000000000000000000000000000000000000000815260040161098990612db3565b60405180910390fd5b600360008373ffffffffffffffffffffffffffffffffffffffff1673ffffffffffffffffffffffffffffffffffffffff168152602001908152602001600020549050919050565b6109e1611771565b6109eb60006117ef565b565b6000600760009054906101000a900473ffffffffffffffffffffffffffffffffffffffff16905090565b606060018054610a2690612aee565b80601f0160208091040260200160405190810160405280929190818152602001828054610a5290612aee565b8015610a9f5780601f10610a7457610100808354040283529160200191610a9f565b820191906000526020600020905b815481529060010190602001808311610a8257829003601f168201915b5050505050905090565b610abb610ab4611001565b83836118b5565b5050565b6009602052806000526040600020600091509050806000018054610ae290612aee565b80601f0160208091040260200160405190810160405280929190818152602001828054610b0e90612aee565b8015610b5b5780601f10610b3057610100808354040283529160200191610b5b565b820191906000526020600020905b815481529060010190602001808311610b3e57829003601f168201915b5050505050908060010154905082565b610b7c610b76611001565b836110c2565b610bbb576040517f08c379a0000000000000000000000000000000000000000000000000000000008152600401610bb290612cb5565b60405180910390fd5b610bc784848484611a21565b50505050565b60006060600960008473ffffffffffffffffffffffffffffffffffffffff1673ffffffffffffffffffffffffffffffffffffffff16815260200190815260200160002060010154600960008573ffffffffffffffffffffffffffffffffffffffff1673ffffffffffffffffffffffffffffffffffffffff168152602001908152602001600020600001808054610c6290612aee565b80601f0160208091040260200160405190810160405280929190818152602001828054610c8e90612aee565b8015610cdb5780601f10610cb057610100808354040283529160200191610cdb565b820191906000526020600020905b815481529060010190602001808311610cbe57829003601f168201915b5050505050905091509150915091565b6060610cf682610fb6565b6000600660008481526020019081526020016000208054610d1690612aee565b80601f0160208091040260200160405190810160405280929190818152602001828054610d4290612aee565b8015610d8f5780601f10610d6457610100808354040283529160200191610d8f565b820191906000526020600020905b815481529060010190602001808311610d7257829003601f168201915b505050505090506000610da0611a7d565b90506000815103610db5578192505050610df8565b600082511115610dea578082604051602001610dd2929190612e0f565b60405160208183030381529060405292505050610df8565b610df384611a94565b925050505b919050565b6000600560008473ffffffffffffffffffffffffffffffffffffffff1673ffffffffffffffffffffffffffffffffffffffff16815260200190815260200160002060008373ffffffffffffffffffffffffffffffffffffffff1673ffffffffffffffffffffffffffffffffffffffff16815260200190815260200160002060009054906101000a900460ff16905092915050565b6000610e9d6008611afc565b6000610ea96008611b12565b9050610eb584826114a3565b610ebf81846116c0565b8091505092915050565b610ed1611771565b600073ffffffffffffffffffffffffffffffffffffffff168173ffffffffffffffffffffffffffffffffffffffff1603610f40576040517f08c379a0000000000000000000000000000000000000000000000000000000008152600401610f3790612ea5565b60405180910390fd5b610f49816117ef565b50565b60007f01ffc9a7000000000000000000000000000000000000000000000000000000007bffffffffffffffffffffffffffffffffffffffffffffffffffffffff1916827bffffffffffffffffffffffffffffffffffffffffffffffffffffffff1916149050919050565b610fbf81611b20565b610ffe576040517f08c379a0000000000000000000000000000000000000000000000000000000008152600401610ff590612d21565b60405180910390fd5b50565b600033905090565b816004600083815260200190815260200160002060006101000a81548173ffffffffffffffffffffffffffffffffffffffff021916908373ffffffffffffffffffffffffffffffffffffffff160217905550808273ffffffffffffffffffffffffffffffffffffffff1661107c8361088c565b73ffffffffffffffffffffffffffffffffffffffff167f8c5be1e5ebec7d5bd14f71427d1e84f3dd0314c0f7b2291e5b200ac8c7c3b92560405160405180910390a45050565b6000806110ce8361088c565b90508073ffffffffffffffffffffffffffffffffffffffff168473ffffffffffffffffffffffffffffffffffffffff161480611110575061110f8185610dfd565b5b8061114e57508373ffffffffffffffffffffffffffffffffffffffff16611136846105ea565b73ffffffffffffffffffffffffffffffffffffffff16145b91505092915050565b8273ffffffffffffffffffffffffffffffffffffffff166111778261088c565b73ffffffffffffffffffffffffffffffffffffffff16146111cd576040517f08c379a00000000000000000000000000000000000000000000000000000000081526004016111c490612f37565b60405180910390fd5b600073ffffffffffffffffffffffffffffffffffffffff168273ffffffffffffffffffffffffffffffffffffffff160361123c576040517f08c379a000000000000000000000000000000000000000000000000000000000815260040161123390612fc9565b60405180910390fd5b6112498383836001611b61565b8273ffffffffffffffffffffffffffffffffffffffff166112698261088c565b73ffffffffffffffffffffffffffffffffffffffff16146112bf576040517f08c379a00000000000000000000000000000000000000000000000000000000081526004016112b690612f37565b60405180910390fd5b6004600082815260200190815260200160002060006101000a81549073ffffffffffffffffffffffffffffffffffffffff02191690556001600360008573ffffffffffffffffffffffffffffffffffffffff1673ffffffffffffffffffffffffffffffffffffffff168152602001908152602001600020600082825403925050819055506001600360008473ffffffffffffffffffffffffffffffffffffffff1673ffffffffffffffffffffffffffffffffffffffff16815260200190815260200160002060008282540192505081905550816002600083815260200190815260200160002060006101000a81548173ffffffffffffffffffffffffffffffffffffffff021916908373ffffffffffffffffffffffffffffffffffffffff160217905550808273ffffffffffffffffffffffffffffffffffffffff168473ffffffffffffffffffffffffffffffffffffffff167fddf252ad1be2c89b69c2b068fc378daa952ba7f163c4a11628f55a4df523b3ef60405160405180910390a461144b8383836001611c87565b505050565b61145981611c8d565b600060066000838152602001908152602001600020805461147990612aee565b9050146114a05760066000828152602001908152602001600020600061149f9190612264565b5b50565b600073ffffffffffffffffffffffffffffffffffffffff168273ffffffffffffffffffffffffffffffffffffffff1603611512576040517f08c379a000000000000000000000000000000000000000000000000000000000815260040161150990613035565b60405180910390fd5b61151b81611b20565b1561155b576040517f08c379a0000000000000000000000000000000000000000000000000000000008152600401611552906130a1565b60405180910390fd5b611569600083836001611b61565b61157281611b20565b156115b2576040517f08c379a00000000000000000000000000000000000000000000000000000000081526004016115a9906130a1565b60405180910390fd5b6001600360008473ffffffffffffffffffffffffffffffffffffffff1673ffffffffffffffffffffffffffffffffffffffff16815260200190815260200160002060008282540192505081905550816002600083815260200190815260200160002060006101000a81548173ffffffffffffffffffffffffffffffffffffffff021916908373ffffffffffffffffffffffffffffffffffffffff160217905550808273ffffffffffffffffffffffffffffffffffffffff16600073ffffffffffffffffffffffffffffffffffffffff167fddf252ad1be2c89b69c2b068fc378daa952ba7f163c4a11628f55a4df523b3ef60405160405180910390a46116bc600083836001611c87565b5050565b6116c982611b20565b611708576040517f08c379a00000000000000000000000000000000000000000000000000000000081526004016116ff90613133565b60405180910390fd5b8060066000848152602001908152602001600020908051906020019061172f9291906121de565b505050565b60006002600083815260200190815260200160002060009054906101000a900473ffffffffffffffffffffffffffffffffffffffff169050919050565b611779611001565b73ffffffffffffffffffffffffffffffffffffffff166117976109ed565b73ffffffffffffffffffffffffffffffffffffffff16146117ed576040517f08c379a00000000000000000000000000000000000000000000000000000000081526004016117e49061319f565b60405180910390fd5b565b6000600760009054906101000a900473ffffffffffffffffffffffffffffffffffffffff16905081600760006101000a81548173ffffffffffffffffffffffffffffffffffffffff021916908373ffffffffffffffffffffffffffffffffffffffff1602179055508173ffffffffffffffffffffffffffffffffffffffff168173ffffffffffffffffffffffffffffffffffffffff167f8be0079c531659141344cd1fd0a4f28419497f9722a3daafe3b4186f6b6457e060405160405180910390a35050565b8173ffffffffffffffffffffffffffffffffffffffff168373ffffffffffffffffffffffffffffffffffffffff1603611923576040517f08c379a000000000000000000000000000000000000000000000000000000000815260040161191a9061320b565b60405180910390fd5b80600560008573ffffffffffffffffffffffffffffffffffffffff1673ffffffffffffffffffffffffffffffffffffffff16815260200190815260200160002060008473ffffffffffffffffffffffffffffffffffffffff1673ffffffffffffffffffffffffffffffffffffffff16815260200190815260200160002060006101000a81548160ff0219169083151502179055508173ffffffffffffffffffffffffffffffffffffffff168373ffffffffffffffffffffffffffffffffffffffff167f17307eab39ab6107e8899845ad3d59bd9653f200f220920489ca2b5937696c3183604051611a149190612375565b60405180910390a3505050565b611a2c848484611157565b611a3884848484611ddb565b611a77576040517f08c379a0000000000000000000000000000000000000000000000000000000008152600401611a6e9061329d565b60405180910390fd5b50505050565b606060405180602001604052806000815250905090565b6060611a9f82610fb6565b6000611aa9611a7d565b90506000815111611ac95760405180602001604052806000815250611af4565b80611ad384611f9a565b604051602001611ae4929190612e0f565b6040516020818303038152906040525b915050919050565b6001816000016000828254019250508190555050565b600081600001549050919050565b60008073ffffffffffffffffffffffffffffffffffffffff16611b4283611734565b73ffffffffffffffffffffffffffffffffffffffff1614159050919050565b6001811115611c8157600073ffffffffffffffffffffffffffffffffffffffff168473ffffffffffffffffffffffffffffffffffffffff1614611bf55780600360008673ffffffffffffffffffffffffffffffffffffffff1673ffffffffffffffffffffffffffffffffffffffff1681526020019081526020016000206000828254611bed91906132ec565b925050819055505b600073ffffffffffffffffffffffffffffffffffffffff168373ffffffffffffffffffffffffffffffffffffffff1614611c805780600360008573ffffffffffffffffffffffffffffffffffffffff1673ffffffffffffffffffffffffffffffffffffffff1681526020019081526020016000206000828254611c789190613320565b925050819055505b5b50505050565b50505050565b6000611c988261088c565b9050611ca8816000846001611b61565b611cb18261088c565b90506004600083815260200190815260200160002060006101000a81549073ffffffffffffffffffffffffffffffffffffffff02191690556001600360008373ffffffffffffffffffffffffffffffffffffffff1673ffffffffffffffffffffffffffffffffffffffff168152602001908152602001600020600082825403925050819055506002600083815260200190815260200160002060006101000a81549073ffffffffffffffffffffffffffffffffffffffff021916905581600073ffffffffffffffffffffffffffffffffffffffff168273ffffffffffffffffffffffffffffffffffffffff167fddf252ad1be2c89b69c2b068fc378daa952ba7f163c4a11628f55a4df523b3ef60405160405180910390a4611dd7816000846001611c87565b5050565b6000611dfc8473ffffffffffffffffffffffffffffffffffffffff16612068565b15611f8d578373ffffffffffffffffffffffffffffffffffffffff1663150b7a02611e25611001565b8786866040518563ffffffff167c0100000000000000000000000000000000000000000000000000000000028152600401611e6394939291906133cb565b6020604051808303816000875af1925050508015611e9f57506040513d601f19601f82011682018060405250810190611e9c919061342c565b60015b611f21573d8060008114611ecf576040519150601f19603f3d011682016040523d82523d6000602084013e611ed4565b606091505b506000815103611f19576040517f08c379a0000000000000000000000000000000000000000000000000000000008152600401611f109061329d565b60405180910390fd5b805181602001fd5b63150b7a027c0100000000000000000000000000000000000000000000000000000000027bffffffffffffffffffffffffffffffffffffffffffffffffffffffff1916817bffffffffffffffffffffffffffffffffffffffffffffffffffffffff191614915050611f92565b600190505b949350505050565b606060006001611fa98461208b565b01905060008167ffffffffffffffff811115611fc857611fc7612540565b5b6040519080825280601f01601f191660200182016040528015611ffa5781602001600182028036833780820191505090505b509050600082602001820190505b60011561205d578080600190039150507f3031323334353637383961626364656600000000000000000000000000000000600a86061a8153600a858161205157612050613459565b5b04945060008503612008575b819350505050919050565b6000808273ffffffffffffffffffffffffffffffffffffffff163b119050919050565b600080600090507a184f03e93ff9f4daa797ed6e38ed64bf6a1f01000000000000000083106120e9577a184f03e93ff9f4daa797ed6e38ed64bf6a1f01000000000000000083816120df576120de613459565b5b0492506040810190505b6d04ee2d6d415b85acef81000000008310612126576d04ee2d6d415b85acef8100000000838161211c5761211b613459565b5b0492506020810190505b662386f26fc10000831061215557662386f26fc10000838161214b5761214a613459565b5b0492506010810190505b6305f5e100831061217e576305f5e100838161217457612173613459565b5b0492506008810190505b61271083106121a357612710838161219957612198613459565b5b0492506004810190505b606483106121c657606483816121bc576121bb613459565b5b0492506002810190505b600a83106121d5576001810190505b80915050919050565b8280546121ea90612aee565b90600052602060002090601f01602090048101928261220c5760008555612253565b82601f1061222557805160ff1916838001178555612253565b82800160010185558215612253579182015b82811115612252578251825591602001919060010190612237565b5b50905061226091906122a4565b5090565b50805461227090612aee565b6000825580601f1061228257506122a1565b601f0160209004906000526020600020908101906122a091906122a4565b5b50565b5b808211156122bd5760008160009055506001016122a5565b5090565b6000604051905090565b600080fd5b600080fd5b60007fffffffff0000000000000000000000000000000000000000000000000000000082169050919050565b61230a816122d5565b811461231557600080fd5b50565b60008135905061232781612301565b92915050565b600060208284031215612343576123426122cb565b5b600061235184828501612318565b91505092915050565b60008115159050919050565b61236f8161235a565b82525050565b600060208201905061238a6000830184612366565b92915050565b600081519050919050565b600082825260208201905092915050565b60005b838110156123ca5780820151818401526020810190506123af565b838111156123d9576000848401525b50505050565b6000601f19601f8301169050919050565b60006123fb82612390565b612405818561239b565b93506124158185602086016123ac565b61241e816123df565b840191505092915050565b6000602082019050818103600083015261244381846123f0565b905092915050565b6000819050919050565b61245e8161244b565b811461246957600080fd5b50565b60008135905061247b81612455565b92915050565b600060208284031215612497576124966122cb565b5b60006124a58482850161246c565b91505092915050565b600073ffffffffffffffffffffffffffffffffffffffff82169050919050565b60006124d9826124ae565b9050919050565b6124e9816124ce565b82525050565b600060208201905061250460008301846124e0565b92915050565b612513816124ce565b811461251e57600080fd5b50565b6000813590506125308161250a565b92915050565b600080fd5b600080fd5b7f4e487b7100000000000000000000000000000000000000000000000000000000600052604160045260246000fd5b612578826123df565b810181811067ffffffffffffffff8211171561259757612596612540565b5b80604052505050565b60006125aa6122c1565b90506125b6828261256f565b919050565b600067ffffffffffffffff8211156125d6576125d5612540565b5b6125df826123df565b9050602081019050919050565b82818337600083830152505050565b600061260e612609846125bb565b6125a0565b90508281526020810184848401111561262a5761262961253b565b5b6126358482856125ec565b509392505050565b600082601f83011261265257612651612536565b5b81356126628482602086016125fb565b91505092915050565b600080600060608486031215612684576126836122cb565b5b600061269286828701612521565b93505060206126a38682870161246c565b925050604084013567ffffffffffffffff8111156126c4576126c36122d0565b5b6126d08682870161263d565b9150509250925092565b600080604083850312156126f1576126f06122cb565b5b60006126ff85828601612521565b92505060206127108582860161246c565b9150509250929050565b600080600060608486031215612733576127326122cb565b5b600061274186828701612521565b935050602061275286828701612521565b92505060406127638682870161246c565b9150509250925092565b600080600060608486031215612786576127856122cb565b5b60006127948682870161246c565b93505060206127a586828701612521565b925050604084013567ffffffffffffffff8111156127c6576127c56122d0565b5b6127d28682870161263d565b9150509250925092565b6000602082840312156127f2576127f16122cb565b5b600061280084828501612521565b91505092915050565b6128128161244b565b82525050565b600060208201905061282d6000830184612809565b92915050565b61283c8161235a565b811461284757600080fd5b50565b60008135905061285981612833565b92915050565b60008060408385031215612876576128756122cb565b5b600061288485828601612521565b92505060206128958582860161284a565b9150509250929050565b600060408201905081810360008301526128b981856123f0565b90506128c86020830184612809565b9392505050565b600067ffffffffffffffff8211156128ea576128e9612540565b5b6128f3826123df565b9050602081019050919050565b600061291361290e846128cf565b6125a0565b90508281526020810184848401111561292f5761292e61253b565b5b61293a8482856125ec565b509392505050565b600082601f83011261295757612956612536565b5b8135612967848260208601612900565b91505092915050565b6000806000806080858703121561298a576129896122cb565b5b600061299887828801612521565b94505060206129a987828801612521565b93505060406129ba8782880161246c565b925050606085013567ffffffffffffffff8111156129db576129da6122d0565b5b6129e787828801612942565b91505092959194509250565b6000604082019050612a086000830185612809565b8181036020830152612a1a81846123f0565b90509392505050565b60008060408385031215612a3a57612a396122cb565b5b6000612a4885828601612521565b9250506020612a5985828601612521565b9150509250929050565b60008060408385031215612a7a57612a796122cb565b5b6000612a8885828601612521565b925050602083013567ffffffffffffffff811115612aa957612aa86122d0565b5b612ab58582860161263d565b9150509250929050565b7f4e487b7100000000000000000000000000000000000000000000000000000000600052602260045260246000fd5b60006002820490506001821680612b0657607f821691505b602082108103612b1957612b18612abf565b5b50919050565b7f4552433732313a20617070726f76616c20746f2063757272656e74206f776e6560008201527f7200000000000000000000000000000000000000000000000000000000000000602082015250565b6000612b7b60218361239b565b9150612b8682612b1f565b604082019050919050565b60006020820190508181036000830152612baa81612b6e565b9050919050565b7f4552433732313a20617070726f76652063616c6c6572206973206e6f7420746f60008201527f6b656e206f776e6572206f7220617070726f76656420666f7220616c6c000000602082015250565b6000612c0d603d8361239b565b9150612c1882612bb1565b604082019050919050565b60006020820190508181036000830152612c3c81612c00565b9050919050565b7f4552433732313a2063616c6c6572206973206e6f7420746f6b656e206f776e6560008201527f72206f7220617070726f76656400000000000000000000000000000000000000602082015250565b6000612c9f602d8361239b565b9150612caa82612c43565b604082019050919050565b60006020820190508181036000830152612cce81612c92565b9050919050565b7f4552433732313a20696e76616c696420746f6b656e2049440000000000000000600082015250565b6000612d0b60188361239b565b9150612d1682612cd5565b602082019050919050565b60006020820190508181036000830152612d3a81612cfe565b9050919050565b7f4552433732313a2061646472657373207a65726f206973206e6f74206120766160008201527f6c6964206f776e65720000000000000000000000000000000000000000000000602082015250565b6000612d9d60298361239b565b9150612da882612d41565b604082019050919050565b60006020820190508181036000830152612dcc81612d90565b9050919050565b600081905092915050565b6000612de982612390565b612df38185612dd3565b9350612e038185602086016123ac565b80840191505092915050565b6000612e1b8285612dde565b9150612e278284612dde565b91508190509392505050565b7f4f776e61626c653a206e6577206f776e657220697320746865207a65726f206160008201527f6464726573730000000000000000000000000000000000000000000000000000602082015250565b6000612e8f60268361239b565b9150612e9a82612e33565b604082019050919050565b60006020820190508181036000830152612ebe81612e82565b9050919050565b7f4552433732313a207472616e736665722066726f6d20696e636f72726563742060008201527f6f776e6572000000000000000000000000000000000000000000000000000000602082015250565b6000612f2160258361239b565b9150612f2c82612ec5565b604082019050919050565b60006020820190508181036000830152612f5081612f14565b9050919050565b7f4552433732313a207472616e7366657220746f20746865207a65726f2061646460008201527f7265737300000000000000000000000000000000000000000000000000000000602082015250565b6000612fb360248361239b565b9150612fbe82612f57565b604082019050919050565b60006020820190508181036000830152612fe281612fa6565b9050919050565b7f4552433732313a206d696e7420746f20746865207a65726f2061646472657373600082015250565b600061301f60208361239b565b915061302a82612fe9565b602082019050919050565b6000602082019050818103600083015261304e81613012565b9050919050565b7f4552433732313a20746f6b656e20616c7265616479206d696e74656400000000600082015250565b600061308b601c8361239b565b915061309682613055565b602082019050919050565b600060208201905081810360008301526130ba8161307e565b9050919050565b7f45524337323155524953746f726167653a2055524920736574206f66206e6f6e60008201527f6578697374656e7420746f6b656e000000000000000000000000000000000000602082015250565b600061311d602e8361239b565b9150613128826130c1565b604082019050919050565b6000602082019050818103600083015261314c81613110565b9050919050565b7f4f776e61626c653a2063616c6c6572206973206e6f7420746865206f776e6572600082015250565b600061318960208361239b565b915061319482613153565b602082019050919050565b600060208201905081810360008301526131b88161317c565b9050919050565b7f4552433732313a20617070726f766520746f2063616c6c657200000000000000600082015250565b60006131f560198361239b565b9150613200826131bf565b602082019050919050565b60006020820190508181036000830152613224816131e8565b9050919050565b7f4552433732313a207472616e7366657220746f206e6f6e20455243373231526560008201527f63656976657220696d706c656d656e7465720000000000000000000000000000602082015250565b600061328760328361239b565b91506132928261322b565b604082019050919050565b600060208201905081810360008301526132b68161327a565b9050919050565b7f4e487b7100000000000000000000000000000000000000000000000000000000600052601160045260246000fd5b60006132f78261244b565b91506133028361244b565b925082821015613315576133146132bd565b5b828203905092915050565b600061332b8261244b565b91506133368361244b565b9250827fffffffffffffffffffffffffffffffffffffffffffffffffffffffffffffffff0382111561336b5761336a6132bd565b5b828201905092915050565b600081519050919050565b600082825260208201905092915050565b600061339d82613376565b6133a78185613381565b93506133b78185602086016123ac565b6133c0816123df565b840191505092915050565b60006080820190506133e060008301876124e0565b6133ed60208301866124e0565b6133fa6040830185612809565b818103606083015261340c8184613392565b905095945050505050565b60008151905061342681612301565b92915050565b600060208284031215613442576134416122cb565b5b600061345084828501613417565b91505092915050565b7f4e487b7100000000000000000000000000000000000000000000000000000000600052601260045260246000fdfea2646970667358221220073e728bec6a03972a406c6698a630aa9505c8f2fa8a214d40c20480b2aeac2664736f6c634300080d0033",
  "immutableReferences": {},
  "source": "// SPDX-License-Identifier: MIT\n// Tells the Solidity compiler to compile only from v0.8.13 to v0.9.0\npragma solidity ^0.8.13;\n\nimport \"@openzeppelin/contracts/token/ERC721/ERC721.sol\";\nimport \"@openzeppelin/contracts/utils/Counters.sol\";\nimport \"@openzeppelin/contracts/access/Ownable.sol\";\nimport \"@openzeppelin/contracts/token/ERC721/extensions/ERC721URIStorage.sol\";\n\ncontract LandNFT is ERC721URIStorage, Ownable {\n    using Counters for Counters.Counter;\n\n    Counters.Counter private _tokenIds;\n\n    struct will \n    {\n        string text;\n        uint256 propertyID;\n    }\n\n    mapping (address => will) public wills;\n\n    constructor() ERC721(\"Land Deeds\", \"LDHG\") {}\n\n    function mintNFT(address recipient, string memory tokenURI)\n        public\n        returns (uint256)\n    {\n        _tokenIds.increment();\n\n        uint256 newItemId = _tokenIds.current();\n        _mint(recipient, newItemId);\n        _setTokenURI(newItemId, tokenURI);\n        return newItemId;\n    }\n\n    function transferNFT(address from,address to,uint256 tokenId) public {\n        \n        _transfer(from, to, tokenId);\n    }\n\n    function updateNFT(uint256 tokenId,address recepient,string memory tokenURI) public{\n        _burn(tokenId);\n        _mint(recepient,tokenId);\n        _setTokenURI(tokenId, tokenURI);\n    }\n\n    function createWill(address creater,uint256 id,string memory text) public \n    { \n        wills[creater].propertyID = id;\n        wills[creater].text = text;\n\n    }\n\n    function viewWill(address creater) view public returns (uint256, string memory ) \n    {\n        return (wills[creater].propertyID,wills[creater].text);\n    }\n}",
  "sourcePath": "/Users/sahilpal/Desktop/SAHIL/WEB DEV/Hackathons/LDAN-Dojima-Hackathon/contracts/LandNFT.sol",
  "compiler": {
    "name": "solc",
    "version": "0.8.13+commit.abaa5c0e.Emscripten.clang"
  },
  "schemaVersion": "3.4.10",
  "updatedAt": "2023-01-29T06:14:57.907Z",
  "networkType": "ethereum",
  "devdoc": {
    "kind": "dev",
    "methods": {
      "approve(address,uint256)": {
        "details": "See {IERC721-approve}."
      },
      "balanceOf(address)": {
        "details": "See {IERC721-balanceOf}."
      },
      "getApproved(uint256)": {
        "details": "See {IERC721-getApproved}."
      },
      "isApprovedForAll(address,address)": {
        "details": "See {IERC721-isApprovedForAll}."
      },
      "name()": {
        "details": "See {IERC721Metadata-name}."
      },
      "owner()": {
        "details": "Returns the address of the current owner."
      },
      "ownerOf(uint256)": {
        "details": "See {IERC721-ownerOf}."
      },
      "renounceOwnership()": {
        "details": "Leaves the contract without owner. It will not be possible to call `onlyOwner` functions anymore. Can only be called by the current owner. NOTE: Renouncing ownership will leave the contract without an owner, thereby removing any functionality that is only available to the owner."
      },
      "safeTransferFrom(address,address,uint256)": {
        "details": "See {IERC721-safeTransferFrom}."
      },
      "safeTransferFrom(address,address,uint256,bytes)": {
        "details": "See {IERC721-safeTransferFrom}."
      },
      "setApprovalForAll(address,bool)": {
        "details": "See {IERC721-setApprovalForAll}."
      },
      "supportsInterface(bytes4)": {
        "details": "See {IERC165-supportsInterface}."
      },
      "symbol()": {
        "details": "See {IERC721Metadata-symbol}."
      },
      "tokenURI(uint256)": {
        "details": "See {IERC721Metadata-tokenURI}."
      },
      "transferFrom(address,address,uint256)": {
        "details": "See {IERC721-transferFrom}."
      },
      "transferOwnership(address)": {
        "details": "Transfers ownership of the contract to a new account (`newOwner`). Can only be called by the current owner."
      }
    },
    "version": 1
  },
  "userdoc": {
    "kind": "user",
    "methods": {},
    "version": 1
  }
}